:1000000049C0000064C0000062C0000060C0000081
:100010005EC000005CC000005AC0000058C0000074
:1000200056C0000054C0000052C0000050C0000084
:10003000B8C500004CC000004AC0000048C0000025
:100040008BC5000044C0000042C0000040C000005A
:100050003EC000003CC000003AC0000038C00000B4
:1000600036C0000061C5000032C0000030C0000092
:100070002EC000002CC000002AC0000028C00000D4
:1000800026C0000024C0000022C0000020C00000E4
:100090001EC0000011241FBECFEFD0E1DEBFCDBFD8
:1000A00011E0A0E0B1E0E8ECF0E100E00BBF02C03D
:1000B00007900D92AA33B107D9F721E0AAE3B1E086
:1000C00001C01D92A53BB207E1F7B0D5FBC798CFA1
:1000D00097B184E0892787B908954F925F926F9214
:1000E0007F928F929F92AF92BF92CF92DF92EF92C8
:1000F000FF920F931F93CF93DF93209111013091C3
:100100001201409113015091140160E070E086E10A
:1001100095E42BD66B017C01809000019090010149
:10012000A0900201B0900301A501940168D720E0DE
:1001300030E041EE54E4B1D52B013C0160913E0129
:1001400070E080E090E0A7D69B01AC01C301B20152
:10015000A4D573D62B013C017093670160936601AF
:1001600020910C0130910D0140910E0150910F0131
:10017000C501B40192D5A701960141D720E030E036
:1001800041EE54E48AD559D67093B4016093B3011B
:10019000209108013091090140910A0150910B0111
:1001A000C501B40179D5A701960129D720E030E037
:1001B00041EE54E472D541D67093B2016093B1011F
:1001C00020910401309105014091060150910701F1
:1001D000C501B40161D5A701960111D720E030E037
:1001E00041EE54E45AD529D67093650160936401B9
:1001F0005092700140926F01C1E2D1E003E711E03B
:100200000F2EF9E3EF2EF1E0FF2EF02D6991799199
:100210008991999120E030E04CE452E4F0D60DD67B
:10022000F80161938F01CE15DF0581F7E3E7F1E077
:100230004181242F30E05081B901651B7109CB0148
:1002400099230CF4019695958795850F8093680105
:1002500050917501852F90E0BC01621B730B9B01CF
:1002600012F42F5F3F4F35952795240F2093690196
:1002700040917601242F30E0B901681B790BCB0146
:1002800099230CF4019695958795850F80936A01C3
:1002900050917701852F90E0BC01621B730B9B018D
:1002A00012F42F5F3F4F35952795240F20936B0154
:1002B00040917801242F30E0281B390BC901992384
:1002C0000CF4019695958795850F80936C0140936A
:1002D0006D01DF91CF911F910F91FF90EF90DF9013
:1002E000CF90BF90AF909F908F907F906F905F90D6
:1002F0004F900895CF93DF93039903C010924B0161
:100300003FC090914C01E8E6F1E04581C92FD0E073
:10031000642F70E0665F7F4FA081E7E6F1E081E047
:1003200057E09F01285631402430310540F42081A8
:100330009217B0F021812917A8F4252F16C0941721
:1003400048F06C177D0734F086E080934B01A917C5
:1003500018F416C0A91740F081E080934B0110C03B
:10036000252F03C0282F01C0252F273019F02093F7
:100370004B0106C08F5F3196873099F680934B0111
:1003800080914B01E9E7F1E08083818383E68283FA
:1003900082E6838381E6848380E685838FE5868396
:1003A0008EE58783DF91CF910895CF92DF92EF9210
:1003B000FF92CF93DF938091430181116DC08091B3
:1003C00084018111F9C0809183018111E3C064C06F
:1003D00020911501309116013093400120933F0187
:1003E00091E0909343011092440140911B01509180
:1003F0001C0120911D0130911E01240F351F3093E7
:100400005101209350018F5F80934A015093420124
:100410004093410180918301882309F4E4C08091D5
:100420004B01882309F4DFC020911501309116019A
:100430003093400120933F0191E09093430192E07B
:10044000909344012091190130911A0140911D01AE
:1004500050911E01B901640F751F70935101609393
:10046000500130934201209341019FEF980F9093E8
:100470004A01823009F0B7C081E080934401809145
:10048000170190911801480F591F50935101409343
:10049000500110924A01A7C060915A0170915B010E
:1004A00080915C0190915D01F4D4209160013091C4
:1004B00061014091620150916301EED36B017C01B7
:1004C000609141017091420180E090E0E2D49B0193
:1004D000AC01C701B60145D488230CF04FC0909100
:1004E0004A0180914B01981709F448C080913D0161
:1004F000811125C081E080933D01809144018130CC
:1005000069F018F0823099F01AC08091B30190918F
:10051000B4019093700180936F0111C080916401C8
:10052000909165019093700180936F0108C0809154
:10053000B1019091B2019093700180936F01E9E74E
:10054000F1E0C189D0E0DC2FCC278089C80FD11D14
:10055000D0937201C09371016091100170E080E04E
:1005600090E099D49B01AC01C701B60144D518169F
:10057000D4F5CD3ADD40B8F1109A35C0109880918D
:100580006601909167019093700180936F011092C2
:100590003D0129C060915A0170915B0180915C011D
:1005A00090915D0176D460936001709361018093B6
:1005B00062019093630133CF60915A0170915B01A6
:1005C00080915C0190915D0164D4609360017093AF
:1005D0006101809362019093630180914B018630A9
:1005E00008F4F6CE17CFDF91CF91FF90EF90DF9018
:1005F000CF900895CF92DF92EF92FF921F93CF9307
:10060000DF93E9E7F1E06185669511E0160F8585D6
:10061000813029F080918501813009F03BC080E074
:1006200090E0A8ECB2E48093460190934701A09338
:100630004801B0934901209111013091120140917C
:1006400013015091140160E070E086E195E48DD3D0
:1006500020E030E048EC52E4D2D420E030E041EE3B
:1006600054E41BD3EAD37093200160931F0120E26E
:1006700033E0129FC001139F900D112490933B0112
:1006800080933A0121E020933C0190934F018093A5
:100690004E0167C08091450181110FC080913C01DE
:1006A000882359F088E893E190934F0180934E019D
:1006B00081E08093450110923C01C0913A01D091B4
:1006C0003B01209709F44DC0612F70E0660F771F42
:1006D000660F771F660F771F072E000C880B990B8C
:1006E000DAD39B01AC0160E070E088EC92E43DD38A
:1006F0006B017C01BE0180E090E0CBD39B01AC019B
:10070000C701B6017CD420E030E048EC52E42DD3A0
:100710006B017C016093460170934701809348010F
:1007200090934901209111013091120140911301E0
:100730005091140160E070E086E195E416D3A701C2
:1007400096015DD420E030E041EE54E4A6D275D3AA
:100750007093200160931F012A97D0933B01C093AF
:100760003A01DF91CF911F91FF90EF90DF90CF90F2
:1007700008958BE084BD82E080936E0089EF87BD91
:10078000E1E8F0E080818A608083EFE6F0E080813C
:10079000826080831092B00010928000089580E4FF
:1007A00080937C00EAE7F0E08CE8808380818064BD
:1007B0008083089585B78F7E85BF87E081B987E301
:1007C00084B908958091500190915101181619062D
:1007D0002CF40A97909351018093500180914E011F
:1007E00090914F01181619062CF40A9790934F0117
:1007F00080934E0180913F01909140011816190697
:1008000034F40A979093400180933F0102C0109204
:10081000430180915A0190915B01A0915C01B091DC
:100820005D018093520190935301A0935401B093C2
:1008300055010895883078F02091DD0030E088502F
:10084000A90102C0559547958A95E2F7CA0151E082
:100850008527817008952091DC0030E0A90102C055
:10086000559547958A95E2F7CA0151E08527817031
:1008700008953F924F925F926F927F928F929F92D4
:10088000AF92BF92CF92DF92EF92FF920F931F939E
:10089000CF93DF931092D80020E030E0EDEEF0E04F
:1008A0000F2EFEEECF2ED12CF02D0F2EFFEEEF2EC1
:1008B000F12CF02D00EF10E061EF70E042EF50E01E
:1008C0000F2EF4EFAF2EB12CF02D0F2EF5EF8F2E53
:1008D000912CF02D0F2EF6EF6F2E712CF02D0F2E88
:1008E000F7EF4F2E512CF02DAAEFB0E0C901829501
:1008F0009295907F9827807F9827982F9860908373
:10090000E6011882E7011882E8011882EB011882DB
:10091000EA011882C3EFD0E01882E5011882E401F1
:100920001882E3011882E201188290E08860382E74
:10093000392A30821C929F5F9830C9F72F5F3F4F52
:100940002F30310599F61092E2008CE08093E3009D
:1009500086E38093E4001092DB00E8EDF0E0808114
:1009600082608083DF91CF911F910F91FF90EF9074
:10097000DF90CF90BF90AF909F908F907F906F90BF
:100980005F904F903F900895CF93DF93EB01982FA6
:100990009295907F9093ED004DDF882311F1CE0169
:1009A0009695879596958795969587958093F3006C
:1009B000C295CC0FC07EC093F2001092F10084E08B
:1009C0008093F0008FEF8093F70080EE8093F60025
:1009D0001092F5001092F40088EC8093EF001092D2
:1009E000EE00DF91CF910895CF93DF93E82FF0E0F1
:1009F000CF0182959295907F9827807F9827282F06
:100A00002860EE0FFF1FEE0FFF1FEE0FFF1FE758CE
:100A1000FE4F90E0CDEED0E0AAEFB0E0892F822B20
:100A200088838C9181939F5F9830C1F7DF91CF913C
:100A30000895CF93DF9320E1829FC0011124886045
:100A4000E62FF72F90E0CDEED0E0AAEFB0E0292F0F
:100A5000282B288321912C939F5F9830C1F7DF9139
:100A6000CF910895CF93DF93EB01982F9295907FCC
:100A70009093ED00DFDE882311F1EEEEF0E01082BE
:100A8000CE019695879596958795969587958093AF
:100A9000F300C295CC0FC07EC093F2001092F1001B
:100AA0001092F0001092F7001092F6001092F500EC
:100AB0001092F400108288E48093EF001082DF919E
:100AC000CF91089569E771E080E0B3DF60E072E004
:100AD00080E0C8DF60E071E081E056DF81E084DF24
:100AE00060E076E082E050DF82E07EDF62E076E088
:100AF00083E04ADF83E078DF64E076E084E044DF8F
:100B000084E072DF60E073E085E03EDF85E06CDF6B
:100B100061E073E086E038DF86E066DF80918B017C
:100B2000869580936E0108951F920F920FB60F92D3
:100B300011248F939F9380917800909179009695DE
:100B400087959695879580934C019F918F910F90F3
:100B50000FBE0F901F9018951F920F920FB60F9215
:100B600011248F939F93AF93BF9380915A019091DB
:100B70005B01A0915C01B0915D010196A11DB11DC9
:100B800080935A0190935B01A0935C01B0935D0147
:100B9000BF91AF919F918F910F900FBE0F901F90BB
:100BA00018951F920F920FB60F9211240BB60F9249
:100BB0008F939F93EF93FF9380914D01882319F0BA
:100BC000813091F023C02D988091430181112C9A9E
:100BD00080916F01909170019093890080938800BB
:100BE00081E080934D0112C02C9880914E0190912C
:100BF0004F01892B09F02D9A80911F0190912001BE
:100C0000909389008093880010924D01EAE7F0E00C
:100C1000808180648083FF91EF919F918F910F90ED
:100C20000BBE0F900FBE0F901F90189556DAA1DDE6
:100C3000C1DDB5DD1EDE78940AE511E0C6E5D1E040
:100C400080915F018A30D0F0BDDD54DB3BDFD2DC28
:100C5000ACDB80915A0190915B01A0915C01B09155
:100C60005D018093560190935701A0935801B09372
:100C7000590180915E018F5F80935E0180915E01DA
:100C8000853018F010925E0123DAF8018081988196
:100C9000891B80935F01D4CF5058BB27AA270ED061
:100CA00070C161D130F066D120F031F49F3F11F472
:100CB0001EF456C10EF4E095E7FB4CC1E92F72D14A
:100CC00080F3BA17620773078407950718F071F469
:100CD0009EF58AC10EF4E0950B2EBA2FA02D0B01C4
:100CE000B90190010C01CA01A0011124FF27591B71
:100CF00099F0593F50F4503E68F11A16F040A22F77
:100D0000232F342F4427585FF3CF469537952795E7
:100D1000A795F0405395C9F77EF41F16BA0B620BE6
:100D2000730B840BBAF09150A1F0FF0FBB1F661F2D
:100D3000771F881FC2F70EC0BA0F621F731F841F70
:100D400048F4879577956795B795F7959E3F08F096
:100D5000B3CF9395880F08F09927EE0F9795879555
:100D60000895D4D008F481E008950CD00AC102D1CE
:100D700040F0F9D030F021F45F3F19F0EBC0511191
:100D800034C1EEC00FD198F39923C9F35523B1F3C1
:100D9000951B550BBB27AA2762177307840738F0EA
:100DA0009F5F5F4F220F331F441FAA1FA9F333D049
:100DB0000E2E3AF0E0E830D091505040E695001CFD
:100DC000CAF729D0FE2F27D0660F771F881FBB1FB9
:100DD000261737074807AB07B0E809F0BB0B802D93
:100DE000BF01FF2793585F4F2AF09E3F510568F0DF
:100DF000B1C0FBC05F3FECF3983EDCF3869577957E
:100E00006795B795F7959F5FC9F7880F911D9695E0
:100E1000879597F90895E1E0660F771F881FBB1F3C
:100E2000621773078407BA0720F0621B730B840BE9
:100E3000BA0BEE1F88F7E0950895BCD088F09F5755
:100E400090F0B92F9927B751A0F0D1F0660F771F16
:100E5000881F991F1AF0BA95C9F712C0B13081F0F6
:100E6000C3D0B1E00895C0C0672F782F8827B85F3E
:100E700039F0B93FCCF3869577956795B395D9F757
:100E80003EF490958095709561957F4F8F4F9F4F61
:100E90000895E89409C097FB3EF49095809570956D
:100EA00061957F4F8F4F9F4F9923A9F0F92F96E9B6
:100EB000BB279395F695879577956795B795F1112B
:100EC000F8CFFAF4BB0F11F460FF1BC06F5F7F4FC8
:100ED0008F4F9F4F16C0882311F096E911C07723DA
:100EE00021F09EE8872F762F05C0662371F096E8E3
:100EF000862F70E060E02AF09A95660F771F881FB2
:100F0000DAF7880F9695879597F90895990F000855
:100F1000550FAA0BE0E8FEEF16161706E807F907CB
:100F2000C0F012161306E407F50798F0621B730B66
:100F3000840B950B39F40A2661F0232B242B252BE7
:100F400021F408950A2609F4A140A6958FEF811D8A
:100F5000811D089597F99F6780E870E060E008952B
:100F60009FEF80EC089500240A94161617061806C1
:100F70000906089500240A9412161306140605069D
:100F80000895092E0394000C11F4882352F0BB0F2E
:100F900040F4BF2B11F460FF04C06F5F7F4F8F4F91
:100FA0009F4F089557FD9058440F551F59F05F3FCC
:100FB00071F04795880F97FB991F61F09F3F79F07B
:100FC00087950895121613061406551FF2CF4695FD
:100FD000F1DF08C0161617061806991FF1CF86957F
:100FE0007105610508940895E894BB276627772763
:100FF000CB0197F908958ADF08F48FEF08950BD09D
:10100000C0CFB1DF28F0B6DF18F0952309F0A2CFEA
:10101000A7CF1124EACFC6DFA0F3959FD1F3950F98
:1010200050E0551F629FF001729FBB27F00DB11D6C
:10103000639FAA27F00DB11DAA1F649F6627B00DFC
:10104000A11D661F829F2227B00DA11D621F739FE5
:10105000B00DA11D621F839FA00D611D221F749FF3
:101060003327A00D611D231F849F600D211D822F3A
:10107000762F6A2F11249F5750408AF0E1F0882381
:101080004AF0EE0FFF1FBB1F661F771F881F91508E
:101090005040A9F79E3F510570F05CCFA6CF5F3F4F
:1010A000ECF3983EDCF3869577956795B795F795C1
:1010B000E7959F5FC1F7FE2B880F911D9695879549
:0810C00097F90895F894FFCFA1
:1010C80000006C420000C84100006C4200008442ED
:1010D8001E00000243F40164002C01C800B400089B
:1010E80007CDCCAC3F295C0F40295C3F400AD76351
:0A10F80040713D8240713D924000BE
:00000001FF
