:1000000049C0000065C0000063C0000061C000007E
:100010005FC000005DC000005BC0000059C0000070
:1000200057C0000055C0000053C0000051C0000080
:10003000AFC600004DC000004BC0000049C000002A
:100040001AC4000045C0000043C0000041C00000C9
:100050003FC000003DC000003BC0000039C00000B0
:1000600037C0000035C0000033C0000031C00000C0
:100070002FC000002DC000002BC0000029C00000D0
:1000800027C0000025C0000023C0000021C00000E0
:100090001FC0000011241FBECFEFD0E1DEBFCDBFD7
:1000A00011E0A0E0B1E0E6E5F2E100E00BBF02C044
:1000B00007900D92A430B107D9F721E0A4E0B1E098
:1000C00001C01D92A034B207E1F7F5D20C942909C2
:1000D00097CFCF93DF93CDB7DEB78CE790E020E4E6
:1000E000FC0120838AE790E024E8FC0120838AE772
:1000F00090E02AE730E0F90120812064FC012083B0
:100100000000DF91CF910895CF93DF93CDB7DEB795
:100110008AE790E0FC018081882F90E08071992728
:10012000892B91F088E790E0FC0180819181909388
:100130003501809334018AE790E02AE730E0F90145
:1001400020812065FC01208380913401909135014C
:10015000DF91CF910895CF93DF9300D0CDB7DEB775
:100160008A8319828A818830C0F08DED90E0FC018D
:100170008081882F90E02A81222F30E02850310999
:1001800002C0959587952A95E2F78170992721E01D
:10019000892B09F020E0298315C08CED90E0FC014B
:1001A0008081882F90E02A81222F30E002C095952F
:1001B00087952A95E2F78170992721E0892B09F02C
:1001C00020E0298389810F900F90DF91CF910895CE
:1001D000CF93DF9300D0CDB7DEB788ED90E0FC0180
:1001E0001082198256C08DEE90E02981222F30E0D6
:1001F00022953295307F3227207F32272860FC01FC
:1002000020838EEE90E0FC0110828FEE90E0FC01E6
:10021000108280EF90E0FC01108281EF90E0FC0101
:10022000108282EF90E0FC01108283EF90E0FC01ED
:10023000108284EF90E0FC01108285EF90E0FC01D9
:10024000108286EF90E0FC01108287EF90E0FC01C5
:1002500010821A8218C08DEE90E02981222F30E0A2
:1002600022953295307F3227207F3227322F2A8104
:10027000232B2860FC0120838AEF90E0FC01108290
:100280008A818F5F8A838A81883028F389818F5F92
:10029000898389818F3008F4A6CF82EE90E0FC013B
:1002A000108283EE90E02CE0FC01208384EE90E04D
:1002B00026E3FC0120838BED90E0FC01108288EDA9
:1002C00090E028ED30E0F90120812260FC012083DC
:1002D00000000F900F90DF91CF910895CF93DF939F
:1002E00000D000D01F92CDB7DEB79B838A837D8379
:1002F0006C838DEE90E02A813B81F9012481229567
:10030000207FFC0120838A819B81FC01848123DF83
:10031000882309F450C083EF90E02A813B81F901E2
:1003200020813181369527953695279536952795E5
:10033000FC01208382EF90E02A813B81F90120813A
:1003400031812295220F207EFC01208381EF90E0F5
:10035000FC01108280EF90E024E0FC01208387EF15
:1003600090E02A813B81F9012281338136952795DE
:100370003695279536952795FC01208386EF90E0EA
:100380002A813B81F901228133812295220F207E2F
:10039000FC01208385EF90E0FC01108284EF90E067
:1003A000FC0110828FEE90E028ECFC0120838EEEA1
:1003B00090E0FC011082198224C08DEE90E02A8129
:1003C0003B81F9012481222F30E022953295307F44
:1003D0003227207F3227322F2981232B2860FC01EE
:1003E00020838981882F90E02C813D81820F931F8B
:1003F0002AEF30E0F9012081FC01208389818F5FA1
:10040000898389818830C8F200000F900F900F9087
:100410000F900F90DF91CF910895CF93DF9300D08D
:1004200000D01F92CDB7DEB79B838A837D836C8318
:10043000198224C08DEE90E02A813B81F90124814C
:10044000222F30E022953295307F3227207F3227CD
:10045000322F2981232B2860FC0120838AEF90E032
:100460002981222F30E04C815D81240F351FF90155
:100470002081FC01208389818F5F89838981883075
:10048000C8F28DEE90E02A813B81F901248122950A
:10049000207FFC0120838A819B81FC0184815BDEBB
:1004A000882309F444C08EEE90E0FC01108283EFB3
:1004B00090E02A813B81F901208131813695279591
:1004C0003695279536952795FC01208382EF90E09D
:1004D0002A813B81F901208131812295220F207EE2
:1004E000FC01208381EF90E0FC01108280EF90E01E
:1004F000FC01108287EF90E0FC01108286EF90E013
:10050000FC01108285EF90E0FC01108284EF90E006
:10051000FC0110828EEE90E0FC0110828FEE90E0E4
:1005200028E4FC0120838EEE90E0FC0110820000A4
:100530000F900F900F900F900F90DF91CF91089533
:10054000CF93DF93CDB7DEB781E692E0909337018A
:10055000809336018AEC92E09093390180933801C0
:1005600088E393E090933B0180933A0183E893E022
:1005700090933D0180933C0189EC93E090933F017F
:1005800080933E0181E0809304010000DF91CF91D0
:100590000895CF93DF9300D01F92CDB7DEB79B8332
:1005A0008A8380910401882309F4CADF8AE080935A
:1005B000000180E290E0FC018081882F90E088704B
:1005C0009927892B19F4109200016DC019828AE0D5
:1005D0008093000160C08981853070F5898188230E
:1005E00059F18981882F90E00197880F991F8A5CC3
:1005F0009E4FFC01808191819C012E5131098A819D
:100600009B818217930708F442C08981882F90E06C
:10061000880F991F8A5C9E4FFC01808191819C010B
:10062000225E3F4F8A819B812817390780F189819B
:100630008F5F809300012BC080913E0190913F011C
:100640009C012E5131098A819B818217930778F092
:1006500080913E0190913F019C01225E3F4F8A8133
:100660009B812817390718F085E08093000180915D
:100670003601909137019C01225E3F4F8A819B8118
:100680002817390728F081E08093000101C000009D
:1006900089818F5F8983809100018A3021F489816B
:1006A000853008F498CF809100010F900F900F9043
:1006B000DF91CF910895EF92FF920F931F93CF9305
:1006C000DF93CDB7DEB76B970FB6F894DEBF0FBEE2
:1006D000CDBF7EDDFEDCFDD0B7D081D080E091E0E3
:1006E0009A8389838FEF9FE09C838B831D8280E0B8
:1006F00092E09F878E87198A188A81E08A8B8AE028
:100700008B8F789420910C0130910D0140910E0156
:1007100050910F018091050190910601A091070170
:10072000B091080179018A01E81AF90A0A0B1B0B3A
:10073000D801C7010A97A105B10508F447C0809107
:100740000C0190910D01A0910E01B0910F018093C9
:10075000050190930601A0930701B09308018091D1
:1007600009018F5F80930901CFDC13DF8B8F8B8DA5
:100770008B8B8B8D8F5F8C8B8B8D8D8B9E012D5EEC
:100780003F4FCE010E96B90148DECE010696BC0160
:10079000CE010196A3DDD0D280910A0190910B0188
:1007A0004B8D688559859C01852FE1D08F8121E093
:1007B000280F8A85882319F48B85882319F081E016
:1007C00090E002C080E090E0622F17D28091090192
:1007D0008A3008F497CF1092090124D093CFCF9399
:1007E000DF93CDB7DEB784E290E020E3FC01208305
:1007F00087E290E0FC01108281E290E021E0FC01C0
:10080000208380E390E0FC0110828AE290E02AE2FB
:1008100030E0F90120812160FC0120830000DF919C
:10082000CF910895CF93DF93CDB7DEB78BE290E001
:100830002BE230E0F901308121E02327FC01208305
:100840000000DF91CF910895CF93DF93CDB7DEB74E
:1008500084E490E02BE0FC0120838EE690E022E02F
:10086000FC01208387E490E029EFFC012083000055
:10087000DF91CF9108951F920F9200905F000F9229
:1008800011248F939F93AF93BF93CF93DF93CDB7F3
:10089000DEB780910C0190910D01A0910E01B091F5
:1008A0000F010196A11DB11D80930C0190930D01C4
:1008B000A0930E01B0930F010000DF91CF91BF9183
:1008C000AF919F918F910F9000925F000F901F90BA
:1008D0001895CF93DF93CDB7DEB781E890E021E89C
:1008E00030E0F90120812A60FC0120838FE690E04E
:1008F0002FE630E0F90120812260FC012083809105
:100900003301882309F404D00000DF91CF910895CA
:10091000CF93DF93CDB7DEB760E070E086EF92E46F
:1009200042D190931E0180931D0160E070E080E44D
:1009300090E439D190931C0180931B0160E070E03A
:100940008AEB92E430D190931A018093190160E010
:1009500070E08CE792E427D19093200180931F01EF
:1009600081E0809333010000DF91CF910895EF92F1
:10097000FF920F931F93CF93DF9300D000D01F926D
:10098000CDB7DEB789836A834B833D832C83809107
:100990001301882309F063C08981813021F08A81A5
:1009A000813009F05CC080910C0190910D01A09103
:1009B0000E01B0910F018093230190932401A09325
:1009C0002501B093260189818823D9F08B81853058
:1009D000C0F484EF91E0909316018093150181E0BB
:1009E000809313011092140184EF809311018B8185
:1009F0008F5F809321018AEF90E09093280180938C
:100A000027018A81882309F4BEC08B81882309F4D9
:100A1000BAC084EF91E0909316018093150181E0B4
:100A20008093130182E08093140184EF809311017D
:100A30008AEF90E090932801809327018B81815069
:100A4000809321018B81813009F09DC081E08093EA
:100A500014018EE5809311011092210194C0209120
:100A60000C0130910D0140910E0150910F018091C8
:100A7000230190912401A0912501B0912601281B0A
:100A8000390B4A0B5B0B8091270190912801CC0117
:100A9000A0E0B0E0281739074A075B0708F05FC0FD
:100AA000909121018B81981709F459C080912201FE
:100AB000882351F581E08093220180911401882FD1
:100AC00090E08130910571F082309105A1F0892B81
:100AD000D9F480911B0190911C019093180180938F
:100AE000170112C08091190190911A019093180179
:100AF0008093170109C080911D0190911E01909370
:100B0000180180931701000020910C0130910D0114
:100B100040910E0150910F01809123019091240189
:100B2000A0912501B091260179018A01E81AF90AFC
:100B30000A0B1B0BD801C701CD97A105B10528F100
:100B40008C819D818D3A9D4000F182E290E022E20D
:100B500030E0F90120812160FC01208316C082E28F
:100B600090E022E230E0F90120812E7FFC01208319
:100B700080911F019091200190931801809317019B
:100B80001092220103C0000001C0000000000F907D
:100B90000F900F900F900F90DF91CF911F910F91B9
:100BA000FF90EF900895CF93DF9300D000D0CDB7A2
:100BB000DEB769837A838B839C832BE331EB43E934
:100BC00051E469817A818B819C81E0D2DC01CB0187
:100BD00020E030E041EE54E4BC01CD0151D1DC0114
:100BE000CB01BC01CD0118D2DC01CB010F900F90DD
:100BF0000F900F90DF91CF910895CF93DF9300D0A6
:100C0000CDB7DEB789836A838981813009F053C00B
:100C100080E090E0A0EFB2E480932B0190932C0150
:100C2000A0932D01B0932E0180912B0190912C0166
:100C3000A0912D01B0912E01BC01CD01B4DF9093A4
:100C40000201809301018A81282F30E084EF91E036
:100C5000289FA001299F500D389F500D1124CA01D3
:100C600090932A01809329018091290190912A0172
:100C7000CC01A0E0B0E0BC01CD01FAD1DC01CB0198
:100C800020E030E040E251E4BC01CD015DD1DC0167
:100C9000CB019C01AD0160E070E080EF92E454D1A3
:100CA000DC01CB0180932F0190933001A09331019F
:100CB000B09332013BC08091290190912A01892B88
:100CC000A9F180912B0190912C01A0912D01B0915F
:100CD0002E0120912F01309130014091310150912E
:100CE0003201BC01CD01CBD0DC01CB0180932B01C3
:100CF00090932C01A0932D01B0932E0180912B0194
:100D000090912C01A0912D01B0912E01BC01CD013B
:100D10004ADF909302018093010180912901909113
:100D20002A010A9790932A018093290100000F90CD
:100D30000F90DF91CF910895CF93DF93CDB7DEB7BA
:100D400080911101882329F0809111018A508093AC
:100D5000110180911201882329F0809112018A509B
:100D6000809312018091150190911601892B51F009
:100D700080911501909116010A9790931601809326
:100D8000150102C0109213010000DF91CF91089568
:100D90001F920F9200905F000F92112400905B0051
:100DA0000F922F933F938F939F93EF93FF93CF9344
:100DB000DF93CDB7DEB7F89480911001882F90E0D3
:100DC000009719F0019721F147C085E290E025E2F4
:100DD00030E0F90120812F7DFC01208380911301F7
:100DE000882349F085E290E025E230E0F901208196
:100DF0002061FC01208388E890E020911701309168
:100E00001801FC013183208381E08093100124C00C
:100E100085E290E025E230E0F90120812F7EFC019F
:100E200020838091290190912A01892B49F085E244
:100E300090E025E230E0F90120812062FC0120836E
:100E400088E890E02091010130910201FC0131839A
:100E5000208310921001000078940000DF91CF9160
:100E6000FF91EF919F918F913F912F910F90009261
:100E70005B000F9000925F000F901F9018955058E4
:100E8000BB27AA270ED048C139D130F03ED120F07F
:100E900031F49F3F11F41EF42EC10EF4E095E7FBF0
:100EA00024C1E92F4AD180F3BA1762077307840778
:100EB000950718F071F49EF562C10EF4E0950B2EC3
:100EC000BA2FA02D0B01B90190010C01CA01A0019C
:100ED0001124FF27591B99F0593F50F4503E68F1F7
:100EE0001A16F040A22F232F342F4427585FF3CF38
:100EF000469537952795A795F0405395C9F77EF409
:100F00001F16BA0B620B730B840BBAF09150A1F051
:100F1000FF0FBB1F661F771F881FC2F70EC0BA0FD7
:100F2000621F731F841F48F4879577956795B7955F
:100F3000F7959E3F08F0B3CF9395880F08F0992757
:100F4000EE0F9795879508950CD0E6C0DED040F05F
:100F5000D5D030F021F45F3F19F0C7C0511110C156
:100F6000CAC0EBD098F39923C9F35523B1F3951B6D
:100F7000550BBB27AA2762177307840738F09F5FBA
:100F80005F4F220F331F441FAA1FA9F333D00E2E29
:100F90003AF0E0E830D091505040E695001CCAF796
:100FA00029D0FE2F27D0660F771F881FBB1F26175B
:100FB00037074807AB07B0E809F0BB0B802DBF012E
:100FC000FF2793585F4F2AF09E3F510568F08DC070
:100FD000D7C05F3FECF3983EDCF386957795679535
:100FE000B795F7959F5FC9F7880F911D96958795DF
:100FF00097F90895E1E0660F771F881FBB1F6217FE
:1010000073078407BA0720F0621B730B840BBA0BBB
:10101000EE1F88F7E095089598D088F09F5790F0DC
:10102000B92F9927B751A0F0D1F0660F771F881F0D
:10103000991F1AF0BA95C9F712C0B13081F09FD04C
:10104000B1E008959CC0672F782F8827B85F39F0EA
:10105000B93FCCF3869577956795B395D9F73EF46C
:1010600090958095709561957F4F8F4F9F4F089514
:10107000E89409C097FB3EF4909580957095619532
:101080007F4F8F4F9F4F9923A9F0F92F96E9BB27E8
:101090009395F695879577956795B795F111F8CF64
:1010A000FAF4BB0F11F460FF1BC06F5F7F4F8F4FCF
:1010B0009F4F16C0882311F096E911C0772321F0C5
:1010C0009EE8872F762F05C0662371F096E8862F5D
:1010D00070E060E02AF09A95660F771F881FDAF7B4
:1010E000880F9695879597F9089597F99F6780E8F7
:1010F00070E060E008959FEF80EC089500240A946A
:101100001616170618060906089500240A941216E2
:101110001306140605060895092E0394000C11F415
:10112000882352F0BB0F40F4BF2B11F460FF04C0C2
:101130006F5F7F4F8F4F9F4F089557FD9058440F1B
:10114000551F59F05F3F71F04795880F97FB991F26
:1011500061F09F3F79F087950895121613061406E3
:10116000551FF2CF4695F1DF08C016161706180670
:10117000991FF1CF86957105610508940895E8944B
:10118000BB2766277727CB0197F908950BD0C4CFEB
:10119000B5DF28F0BADF18F0952309F0A6CFABCF62
:1011A0001124EECFCADFA0F3959FD1F3950F50E045
:1011B000551F629FF001729FBB27F00DB11D639F09
:1011C000AA27F00DB11DAA1F649F6627B00DA11DAF
:1011D000661F829F2227B00DA11D621F739FB00D55
:1011E000A11D621F839FA00D611D221F749F3327C5
:1011F000A00D611D231F849F600D211D822F762F5E
:101200006A2F11249F5750408AF0E1F088234AF05A
:10121000EE0FFF1FBB1F661F771F881F91505040A6
:10122000A9F79E3F510570F060CFAACF5F3FECF366
:10123000983EDCF3869577956795B795F795E79592
:101240009F5FC1F7FE2B880F911D9695879597F9A3
:061250000895F894FFCFA1
:041256000A0807007B
:00000001FF
